:04000000ADEF00F070
:100008004482FACF12F0FBCF13F0D9CF14F0DACF35
:1000180015F0F3CF16F0F4CF17F0F6CF18F0F7CFAE
:1000280019F0F8CF1AF0F5CF1BF0F2AC1EEF00F084
:1000380020EF00F097EF00F09DAC25EF00F027EFE0
:1000480000F032EF00F09EAC2CEF00F02EEF00F045
:1000580032EF00F02BEC18F097EF00F09DA837EF87
:1000680000F039EF00F04EEF00F09EA83EEF00F0F0
:1000780040EF00F04EEF00F002D84CEF00F0050022
:10008800FA6E4250FD6E4350FE6EFF6AFA5012003F
:1000980097EF00F09DAA53EF00F055EF00F06BEFDB
:1000A80000F09EAA5AEF00F05CEF00F06BEF00F052
:1000B80002D869EF00F00500FA6E0001FE51FD6EEE
:1000C800FF51FE6EFF6AFA50120097EF00F0A0A6EB
:1000D80070EF00F072EF00F087EF00F0A1A677EF65
:1000E80000F079EF00F087EF00F002D885EF00F01C
:1000F8000500FA6E2C50FD6E2D50FE6EFF6AFA5008
:10010800120097EF00F09DA68CEF00F08EEF00F044
:1001180097EF00F09EA693EF00F095EF00F097EFB1
:1001280000F079EF00F01BC0F5FF1AC0F8FF19C006
:10013800F7FF18C0F6FF17C0F4FF16C0F3FF15C08D
:10014800DAFF14C0D9FF13C0FBFF12C0FAFF4492B4
:060158001100F9EF18F0A0
:10100000008C33643354336820E82380330C282069
:10101000341834103408340034F833F03374339017
:101020002B2D2D2D2D2D2D2D2D2D2D2D2D2D2D2DF2
:101030002D0D004C6F6164696E67204465766963AD
:101040006500427269676874203D200042726967DA
:101050006874203A20004D6F697374203D20004D64
:101060006F697374203A200054656D70203D200034
:1010700054656D70203A2000256900001F50800BD8
:101080000001D76F1F501F24D96F1EAE4AEF08F022
:101090004CEF08F04DEF08F0D981D951D8B453EF97
:1010A00008F055EF08F06AEF08F0D929D8A45BEFF3
:1010B00008F05DEF08F065EF08F0000E1C6E000E02
:1010C0001D6E000E1E6E000E1F6E1E8E000E1F6E19
:1010D00072EF08F0000E1C6E000E1D6E000E1E6EEC
:1010E000000E1F6E2350800BD86FD751D819D8B47B
:1010F0007CEF08F07EEF08F07FEF08F0D78D2350EB
:101100002324D86F22AE87EF08F089EF08F08AEF2A
:1011100008F0D881D851D8B490EF08F092EF08F0D9
:10112000A7EF08F0D829D8A498EF08F09AEF08F0B4
:10113000A2EF08F0000E206E000E216E000E226E4F
:10114000000E236E228E000E236EAFEF08F0000E0D
:10115000206E000E216E000E226E000E236ED951FD
:10116000D85DD8B0B6EF08F0B8EF08F0DFEF08F0C0
:10117000D7ADBDEF08F0BFEF08F0C1EF08F0800E6B
:10118000D71BD9C0DAF0D8C0D9F0DAC0D8F01CC06B
:10119000DAF020C01CF0DAC020F01DC0DAF021C067
:1011A0001DF0DAC021F01EC0DAF022C01EF0DAC055
:1011B00022F01FC0DAF023C01FF0DAC023F0000EC7
:1011C000DA6FD951D8C024F0256A245E000E255A62
:1011D00025BEF4EF08F0255009E11A0E245CD8A0D2
:1011E000F4EF08F0F6EF08F02DEF09F01C501D1099
:1011F0001E101F10D8A4FFEF08F002EF09F0010E37
:1012000003EF09F0000EDA6F000E1C6E000E1D6E6B
:10121000000E1E6E000E1F6ED8C0D9F036EF09F01A
:10122000DAA115EF09F017EF09F01DEF09F0D890DA
:10123000DA310109DA6F1FEF09F0D890DA331CA018
:1012400024EF09F026EF09F027EF09F0DA8F1F34B9
:101250001F321E321D321C32D92BD851D95DD8A075
:1012600034EF09F036EF09F010EF09F0D7BD3BEF8E
:1012700009F03DEF09F07DEF09F0D951D8A443EF13
:1012800009F045EF09F04FEF09F0000E1C6E000E5B
:101290001D6E000E1E6E000E1F6E9EEF0AF0205097
:1012A0001C2621501D2222501E2223501F221FA027
:1012B0005CEF09F05EEF09F00AEF0AF0DAA163EFE4
:1012C00009F065EF09F06BEF09F0D890DA31010908
:1012D000DA6F6DEF09F0D890DA331CA072EF09F0E5
:1012E00074EF09F075EF09F0DA8F1F341F321E32E8
:1012F0001D321C32D92B0AEF0AF020501C5C215001
:101300001D5822501E581F50800A246E2350800AF8
:101310002458D8B08EEF09F090EF09F0BBEF09F038
:101320001C50205C246E1D502158256E1E502258E2
:10133000266E1F502358276EFF0E24241C6EFF0EAE
:1013400025201D6EFF0E26201E6EFF0E27201F6E0D
:10135000800ED71BDA6DDA51D8A4B1EF09F0B3EFE4
:1013600009F0C3EF09F0010E1C26000E1D221E22FB
:101370001F22C3EF09F020501C5E21501D5A22503D
:101380001E5A23501F5A1C501D101E101F10D8A487
:10139000CCEF09F0CEEF09F003EF0AF0DA51D8A450
:1013A000D4EF09F0D6EF09F003EF0AF0000E1C6E3F
:1013B000000E1D6E000E1E6E000E1F6E9EEF0AF0D8
:1013C000D8901C361D361E361F36DAAFEAEF09F00C
:1013D000ECEF09F0EDEF09F01C80DAA1F2EF09F073
:1013E000F4EF09F0F8EF09F0D880DA37FAEF09F0F6
:1013F000D890DA37D951D8B400EF0AF002EF0AF0EA
:1014000003EF0AF0D9071EAE08EF0AF00AEF0AF060
:10141000E0EF09F0000ED86FDAAF11EF0AF013EF2A
:101420000AF02BEF0AF0DAC024F07F0E2416D8B4AD
:101430001CEF0AF01EEF0AF022EF0AF0010ED86F3F
:101440002BEF0AF01CA027EF0AF029EF0AF02BEF90
:101450000AF01EEF0AF0D851D8B431EF0AF033EF9A
:101460000AF05EEF0AF0010E1C26000E1D221E225D
:101470001F221FA03EEF0AF040EF0AF05EEF0AF0D5
:101480001CC024F01DC025F01EC026F01FC027F090
:101490002734273226322532243224C01CF025C0BE
:1014A0001DF026C01EF027C01FF0D929D8B45BEF6D
:1014B0000AF05DEF0AF05EEF0AF0D92BD929D8B413
:1014C00064EF0AF066EF0AF06EEF0AF0D951D8A483
:1014D0006CEF0AF06EEF0AF080EF0AF0000E1C6E5F
:1014E000000E1D6E000E1E6E000E1F6ED951D8A488
:1014F0007CEF0AF07EEF0AF080EF0AF0000ED76F63
:10150000D9A185EF0AF087EF0AF08AEF0AF01E8E64
:101510008BEF0AF01E9ED890D9311F6ED7AF93EF94
:101520000AF095EF0AF096EF0AF01F8E1CC01CF02F
:101530001DC01DF01EC01EF01FC01FF012000001D4
:10154000E051800BE56FE051E025EB6FDFAFABEFD3
:101550000AF0ADEF0AF0AEEF0AF0EB81EB51D8B430
:10156000B4EF0AF0B6EF0AF0C9EF0AF0EB29D8A4FD
:10157000BCEF0AF0BEEF0AF0C6EF0AF0000EDD6F16
:10158000000EDE6F000EDF6F000EE06FDF8FD1EF19
:101590000AF0000EDD6F000EDE6F000EDF6F000E32
:1015A000E06FE451800BE51BE451E425E66FE3AF07
:1015B000DCEF0AF0DEEF0AF0DFEF0AF0E681E65139
:1015C000D8B4E5EF0AF0E7EF0AF0FAEF0AF0E629FF
:1015D000D8A4EDEF0AF0EFEF0AF0F7EF0AF0000EF3
:1015E000E16F000EE26F000EE36F000EE46FE38F19
:1015F00002EF0BF0000EE16F000EE26F000EE36FE2
:10160000000EE46FE651D8B408EF0BF00AEF0BF0D0
:1016100012EF0BF0EB51D8A410EF0BF012EF0BF020
:101620001CEF0BF0000EDD6F000EDE6F000EDF6FA3
:10163000000EE06FB4EF0CF0E351DD03F3CFF0F0F8
:10164000F4CFF1F0F051E76FE86BE96BEA6BF15121
:10165000EC6FED6BEE6BEF6BE251DE03F3CFF0F06E
:10166000F4CFF1F0F051E727000EE823E923EA2355
:10167000F151EC27000EED23EE23EF23E151DF03C0
:10168000F3CFF0F0F4CFF1F0F051E727000EE823AC
:10169000E923EA23F151EC27000EED23EE23EF239B
:1016A000E9C0EAF0E8C0E9F0E7C0E8F0E76BE15133
:1016B000DE03F3CFF0F0F4CFF1F0F051E727F15172
:1016C000E823000EE923000EEA23E251DD03F3CF05
:1016D000F0F0F4CFF1F0F051E727F151E823000EDC
:1016E000E923000EEA23E9C0EAF0E8C0E9F0E7C028
:1016F000E8F0E76BE151DD03F3CFF0F0F4CFF1F068
:10170000F051E727F151E823000EE923000EEA2308
:10171000E351DE03F3CFF0F0F4CFF1F0F051EC271A
:10172000F151ED23000EEE23000EEF23E251DF0313
:10173000F3CFF0F0F4CFF1F0F051EC27F151ED23BD
:10174000000EEE23000EEF23E351DF03F3CFF0F0A2
:10175000F4CFF1F0F051246EF151256E266A276A1C
:1017600026C027F025C026F024C025F0246A245086
:10177000EC272550ED232650EE232750EF23E7C01A
:1017800024F0E8C025F0E9C026F0EAC027F0190EE1
:10179000CFEF0BF0D8902732263225322432E82EB4
:1017A000CAEF0BF02450EC272550ED232650EE23F2
:1017B0002750EF23E9C0EAF0E8C0E9F0E7C0E8F01D
:1017C000E76BE651EBC024F0256A2426000E2522A3
:1017D000820E2424F06FFF0E2520F16F05EF0CF030
:1017E000D890EC37ED37EE37EF37EAAFFAEF0BF082
:1017F000FCEF0BF0FDEF0BF0EC81D890E737E8370A
:10180000E937EA37F007D8A0F107EEAF0AEF0CF09E
:101810000CEF0CF0F0EF0BF0000EE66FEAAF13EFF9
:101820000CF015EF0CF039EF0CF0FF0EE715246EFD
:10183000FF0EE815256EFF0EE915266E7F0EEA15E0
:10184000276E2450251026102710D8B42AEF0CF04C
:101850002CEF0CF030EF0CF0010EE66F39EF0CF0CE
:10186000ECA135EF0CF037EF0CF039EF0CF02CEF6A
:101870000CF0E651D8B43FEF0CF041EF0CF065EFFF
:101880000CF0010EEC27000EED23EE23EF23EFA169
:101890004CEF0CF04EEF0CF065EF0CF0ECC024F0C8
:1018A000EDC025F0EEC026F0EFC027F02734273238
:1018B00026322532243224C0ECF025C0EDF026C0BB
:1018C000EEF027C0EFF0F04BF12BF1BF70EF0CF012
:1018D000F15108E1F029D8A070EF0CF072EF0CF094
:1018E0007CEF0CF0000EEC6F000EED6F800EEE6FD3
:1018F0007F0EEF6FAAEF0CF0F1BF89EF0CF0F15102
:1019000006E1F005D8B087EF0CF089EF0CF095EF09
:101910000CF0000EEC6F000EED6F000EEE6F000E7F
:10192000EF6F000EE56FAAEF0CF0F0C0EBF0FF0ECA
:10193000EC17FF0EED177F0EEE17000EEF17EBA161
:10194000A4EF0CF0A6EF0CF0A7EF0CF0EE8FD89000
:10195000EB31EF6FE551EF13ECC0DDF0EDC0DEF0E1
:10196000EEC0DFF0EFC0E0F012000001D851D96EF8
:10197000DA6ADFCFF6FF100EF76EF86A0800F5504E
:10198000250AD8A4C6EF0CF0C8EF0CF086EF0DF0D6
:10199000D851D96EDA6ADF2A000E296E000E286E41
:1019A00028C02EF02A682B68D851D96EDA6ADF5029
:1019B000DB6FDBC0F6FF100EF76EF86A0800F5501B
:1019C000640AD8B4E6EF0CF0E8EF0CF0F7EF0CF097
:1019D000DBC0F6FF100EF76EF86A0800F550690AD2
:1019E000D8A4F5EF0CF0F7EF0CF07FEF0DF0D95124
:1019F000D96EDA6A020EDF26DF5CD96EDA6ADECFD4
:101A0000DCF0DECFDDF0D851D96EDA6ADB29DF6E8B
:101A1000200EE06FDDBF0FEF0DF012EF0DF0010EA5
:101A200013EF0DF0000EDA6FE007E051840FD96E6E
:101A3000DA6ADCC01CF0DDC01DF0000E1F6E0A0E5D
:101A40001E6EF3EC10F01CC022F01DC023F0E0EC81
:101A500017F02250300FDF6EDCC01CF0DDC01DF02F
:101A6000000E1F6E0A0E1E6ED2EC0FF01CC0DCF0D2
:101A70001DC0DDF00001DC51DD11D8B442EF0DF0E6
:101A800044EF0DF04CEF0DF0E051D8A44AEF0DF00B
:101A90004CEF0DF014EF0DF0E051D8B452EF0DF013
:101AA00054EF0DF074EF0DF0DA51D8B45AEF0DF099
:101AB0005CEF0DF074EF0DF0E007E051840FD96E8C
:101AC000DA6A2D0EDF6E74EF0DF0E051840FD96EDF
:101AD000DA6ADF50266E26501C6E1D6AD7C01EF0D3
:101AE00096EC10F00001E02B200EE019D8A47BEF5B
:101AF0000DF07DEF0DF065EF0DF098EF0DF00001AA
:101B0000D851D96EDA6ADF2A98EF0DF0D851D96E24
:101B1000DA6ADFCFF6FF100EF76EF86A0800F550AC
:101B20001C6E1D6AD7C01EF096EC10F07FEF0DF012
:101B300012000001D76F0001D751D8B4A2EF0DF009
:101B4000A4EF0DF0C6EF0DF01FBEABEF0DF0A9EF47
:101B50000DF0C6EF0DF01CC020F01DC021F01EC01E
:101B600022F01FC023F0201E211E221E231E202A29
:101B7000000E21222222232220C0D9F021C0DAF037
:101B800022C0DBF023C0DCF0CEEF0DF01CC0D9F09A
:101B90001DC0DAF01EC0DBF01FC0DCF01C501D10B1
:101BA0001E101F10D8A4D7EF0DF0D9EF0DF0E3EF02
:101BB0000DF0000E1C6E000E1D6E000E1E6E000E4F
:101BC0001F6E74EF0EF0960ED86FEDEF0DF0D82B60
:101BD000D890DC33DB33DA33D933000ED915206EDD
:101BE000000EDA15216E000EDB15226EFE0EDC15DE
:101BF000236E2050211022102310D8A402EF0EF0E3
:101C000004EF0EF0E7EF0DF012EF0EF0D82B010EFF
:101C1000D927000EDA23DB23DC23D890DC33DB3337
:101C2000DA33D933000ED915206E000EDA15216E85
:101C3000000EDB15226EFF0EDC15236E20502110E6
:101C400022102310D8A427EF0EF029EF0EF006EF94
:101C50000EF031EF0EF0D807D890D937DA37DB37EE
:101C6000DC37DBBF36EF0EF038EF0EF040EF0EF052
:101C7000020ED8613EEF0EF040EF0EF02BEF0EF0AB
:101C8000D8B145EF0EF047EF0EF048EF0EF0DB9FB6
:101C9000D890D833D8C020F0216A226A236A20C0A5
:101CA00023F0226A216A206A2050D9132150DA13C6
:101CB0002250DB132350DC13D751D8B462EF0EF05F
:101CC00064EF0EF06CEF0EF01FBE6BEF0EF069EFDD
:101CD0000EF06CEF0EF0DC8FD9C01CF0DAC01DF0F6
:101CE000DBC01EF0DCC01FF012001BEC19F0F28EFE
:101CF000F28C800E38EC19F0330E236E2350D8A4EA
:101D0000100E246E020E256E040E266E5FEC15F08A
:101D1000060E0101146F130E136FAD0EE82EFED7E1
:101D2000132FFCD7142FFAD700F000F0010E38EC77
:101D300019F0680E236E2350D8A4100E246E010EE5
:101D4000256E010E266E5FEC15F0420E236E2350B9
:101D5000D8A4100E246E020E256E010E266E5FECC6
:101D600015F0560E236E2350D8A4100E246E030EC9
:101D7000256E010E266E5FEC15F04D0E46EC19F047
:101D80000001C46F000EA0EC11F00CC1C2F00DC137
:101D9000C3F0010E96EC12F00CC1C0F00DC1C1F001
:101DA00076EC19F00001C4512FEC13F00001C25180
:101DB0007AEC13F00001C051C0EC13F0010E0101E8
:101DC000066F090E076F0001C4518FEC17F0020E69
:101DD0000101066F0B0E076F0001C251AAEC17F04C
:101DE000030E0101066F0A0E076F0001C051C5EC1A
:101DF00017F0190E0001C46500EF0FF002EF0FF0AD
:101E00000EEF0FF0320EC46108EF0FF00AEF0FF083
:101E10000EEF0FF08C8C8C9E1CEF0FF0320EC46511
:101E200014EF0FF016EF0FF01AEF0FF08C8C8C8E72
:101E30001CEF0FF08C9C8C9EC35107E1320EC25DEB
:101E4000D8B025EF0FF027EF0FF02AEF0FF08B80BF
:101E50002BEF0FF08B90C15107E1320EC05DD8B06F
:101E600034EF0FF036EF0FF039EF0FF08B823AEFCF
:101E70000FF08B92060E0101146F130E136FAD0E4F
:101E8000E82EFED7132FFCD7142FFAD700F000F05E
:101E9000BDEF0EF0ADEF00F00001F435F535F76F52
:101EA000F751D8A456EF0FF058EF0FF062EF0FF094
:101EB000000EF26F000EF36F000EF46F000EF56F60
:101EC000D1EF0FF0F2C008F1F3C009F1F4C00AF14C
:101ED000F5C00BF1200E73EF0FF00101D8900B331A
:101EE0000A3309330833E82E6DEF0FF00851000173
:101EF000F66FF48FFF0EF217FF0EF317FF0EF417B5
:101F0000000EF517960EF75FF7BF8BEF0FF089EF16
:101F10000FF0A1EF0FF0F751800A970FD8B093EFB1
:101F20000FF095EF0FF097EF0FF058EF0FF0D890FC
:101F3000F533F433F333F233F73F97EF0FF0B9EFA4
:101F40000FF01F0EF765A7EF0FF0A9EF0FF0B1EF3D
:101F50000FF058EF0FF0D890F237F337F437F5372A
:101F6000F707F751D8A4B7EF0FF0B9EF0FF0ABEFC9
:101F70000FF0F651D8B4BFEF0FF0C1EF0FF0C9EF7B
:101F80000FF0F51FF41FF31FF26D000EF323F4237F
:101F9000F523F2C0F2F0F3C0F3F0F4C0F4F0F5C0B2
:101FA000F5F01200000E216E1FBEDBEF0FF0D9EF2F
:101FB0000FF0E1EF0FF01E6C1F1ED8B01F2A010EAC
:101FC000216E1DBEE8EF0FF0E6EF0FF0EEEF0FF021
:101FD0001C6C1D1ED8B01D2A010E211A000E236E86
:101FE000000E226E1E501F10D8B4F9EF0FF0FBEF59
:101FF0000FF023EF10F0010E206E03EF10F0D890D9
:102000001E361F36202A1FAE08EF10F00AEF10F020
:10201000FFEF0FF0D890223623361E501C5C1F5065
:102020001D58D8A016EF10F018EF10F01DEF10F0AB
:102030001E501C5E1F501D5A2280D8901F321E3227
:10204000202E0AEF10F02150D8B429EF10F02BEF1A
:1020500010F02FEF10F0226C231ED8B0232A22C0DC
:102060001CF023C01DF01200A0EC19F00009D8B438
:102070003CEF10F03EEF10F079EF10F04CEF10F065
:1020800010EC1AF095EF10F00CEC1AF095EF10F040
:1020900004EC1AF095EF10F072C00AF073C00BF068
:1020A00002D85DEF10F00500FA6E00016651FD6E7A
:1020B0006751FE6EFF6AFA5012000D6E0E6A0E50E6
:1020C000000AD8B466EF10F048EF10F00D50010A86
:1020D000D8B448EF10F0030AD8B440EF10F0010A6A
:1020E000D8B444EF10F0070AD8B448EF10F048EF26
:1020F00010F0000183917DC0D9FF7EC0DAFF7D4BD7
:102100007E2BDF5014EC1AF000017F07D8A0800767
:102110007F518011D8A48FEF10F091EF10F094EF61
:1021200010F0060E95EF10F0030E12001E50D8B4FA
:102130009CEF10F09EEF10F0A6EF10F01E50D8A408
:10214000A4EF10F0A6EF10F0ABEF10F01C5043EC32
:102150001AF0F2EF10F01E50D96EDA6A0A0ED92684
:10216000DE50DE10D8B4B7EF10F0B9EF10F0D2EFB8
:1021700010F01E50D96EDA6A0A0ED9261E50E16E92
:10218000E26A030EE126DE50E65CE650800A236E2A
:10219000DE50800A2358D8B0D0EF10F0D2EF10F004
:1021A000F2EF10F01E50D96EDA6A030ED926DECF98
:1021B0001FF0DDCF20F01E50D96EDA6ADECF21F09D
:1021C000DDCF22F01F502124D96E20502220DA6E5C
:1021D0001CC0DFFF1E50D96EDA6A030ED926DE2A34
:1021E000000EDD221200000E216E1DBEFCEF10F06D
:1021F000FAEF10F002EF11F01C6C1D1ED8B01D2A72
:10220000010E216E1FBE09EF11F007EF11F00DEF67
:1022100011F01E6C1F1ED8B01F2A1E501F10D8B4FC
:1022200014EF11F016EF11F03AEF11F0010E206EDD
:102230001EEF11F0D8901E361F36202A1FAE23EF56
:1022400011F025EF11F01AEF11F01E501C5C1F5019
:102250001D58D8A02EEF11F030EF11F034EF11F02F
:102260001E501C5E1F501D5AD8901F321E32202E49
:1022700025EF11F02150D8B440EF11F042EF11F0EA
:1022800046EF11F01C6C1D1ED8B01D2A1CC01CF09E
:102290001DC01DF012003250A40FD96EDA6ADF6A39
:1022A000ABA455EF11F057EF11F069EF11F0325078
:1022B000A40FD96EDA6A0001DF8202D869EF11F04B
:1022C0000500FA6EFC51FD6EFD51FE6EFF6AFA507C
:1022D0001200ABA26EEF11F070EF11F082EF11F06F
:1022E0003250A40FD96EDA6A0001DF8402D882EF7F
:1022F00011F00500FA6EFA51FD6EFB51FE6EFF6A99
:10230000FA5012003250A40FD96EDA6ADF50D8B4F6
:102310008CEF11F08EEF11F09DEF11F002D89BEFD2
:1023200011F00500FA6E0001F851FD6EF951FE6ED4
:10233000FF6AFA5012009FEF11F0B0EC18F0120093
:102340000101106F0101105172EC17F01CC011F166
:102350001DC012F1600E0001E16FE50EE26FD00EBC
:10236000E36F3D0EE46FCF0E010111250E6FFF0EDE
:1023700012210F6F0EC11CF00FC11DF01E6A1F6AE3
:10238000000E99EC0DF01CC0DDF01DC0DEF01EC08B
:10239000DFF01FC0E0F09FEC0AF0DDC004F1DEC00A
:1023A00005F1DFC006F1E0C007F1000E0101006F8A
:1023B000000E016FC80E026F420E036FADEC16F0F7
:1023C00000C1F2F001C1F3F002C1F4F003C1F5F075
:1023D0004CEC0FF00001F2510101116F126B11C1B1
:1023E0000CF112C10DF1120037EC1AF07DC0D9FFCB
:1023F0007EC0DAFFDF6E00017D4B7E2B7F07D8A009
:1024000080077F518011D8B408EF12F00AEF12F064
:102410000FEF12F01BEC1AF0050E46EF12F0838757
:102420001AEF12F0F8EC19F046EF12F0FCEC19F08C
:1024300046EF12F06CC00AF06DC00BF002D82AEF24
:1024400012F00500FA6E6051FD6E6151FE6EFF6A7A
:10245000FA5012000D6E0E6A0E50000AD8B433EF17
:1024600012F016EF12F00D50010AD8B416EF12F068
:10247000030AD8B412EF12F0010AD8B412EF12F026
:10248000070AD8B416EF12F016EF12F012001E6E03
:10249000010E1F6E000183B550EF12F052EF12F0E3
:1024A00094EF12F01EC07CF08393838583910E0E0F
:1024B000816F010E7B6FF40E7A6F83877A0E606FE7
:1024C000340E616F000E6C6F000E6D6F7A0E626FCE
:1024D000340E636F000E6E6F000E6F6F7A0E646FB6
:1024E000340E656F000E706F000E716F7A0E666F9E
:1024F000340E676F000E726F000E736F760E686F8A
:10250000340E696F000E746F000E756F300E1C6E06
:10251000340E1D6EEFEC19F031EC1AF00AEC19F0E4
:1025200029EC1AF0000E1F6E1F50120001010E6FF1
:1025300001010E5172EC17F01CC00FF11DC010F11B
:10254000270E0001E16F310EE26FC80EE36F3D0E02
:10255000E46F0FC11CF010C11DF01E6A1F6A000E4F
:1025600099EC0DF01CC0DDF01DC0DEF01EC0DFF0E8
:102570001FC0E0F09FEC0AF0DDC004F1DEC005F101
:10258000DFC006F1E0C007F1000E0101006F000E90
:10259000016FC80E026F420E036FADEC16F000C162
:1025A000F2F001C1F3F002C1F4F003C1F5F04CEC1C
:1025B0000FF00001F25101010F6F106B0FC10CF110
:1025C00010C10DF112000101006F000E0101016F39
:1025D000000E026F000E036F000E046F000E056FF9
:1025E000F6C01CF0000E1E6E200E1D6E000E206E3A
:1025F000030E1F6E13EC18F00001F651D96EDA6A63
:10260000040ED926DF6A010EE46F010EE56F780E25
:10261000E66F00C1E7F0E86B14EC17F01FEF13F062
:10262000010E0525D96EDA6A010EDA220001F65193
:1026300001010525E16EE26ADFCFE7FF052B010E00
:1026400001010525D96EDA6A010EDA22DF50D8A41D
:102650002CEF13F02EEF13F010EF13F01200246E96
:1026600024C01CF01D6A000E1F6E640E1E6ED2EC9C
:102670000FF01C50300F0001C56F24C01CF01D6A04
:10268000000E1F6E0A0E1E6ED2EC0FF01C50300FA3
:102690000001C66F390EC66550EF13F052EF13F00C
:1026A00055EF13F0C651F60FC66F24C01CF01D6A1B
:1026B000000E1F6E0A0E1E6EF3EC10F01C50300F51
:1026C0000001C76F200EC86F430EC96F0D0ECA6F91
:1026D000700E1D6E1D50D8A4100E1E6E080E1F6EBB
:1026E00087EC16F0C50E1D6E1E6A060E1F6E87EC77
:1026F00016F01200246E24C01CF01D6A000E1F6E1E
:10270000640E1E6ED2EC0FF01C50300F366E24C0DB
:102710001CF01D6A000E1F6E0A0E1E6ED2EC0FF02A
:102720001C50300F376E390E376499EF13F09BEF62
:1027300013F09EEF13F03750F60F376E24C01CF0E5
:102740001D6A000E1F6E0A0E1E6EF3EC10F01C5078
:10275000300F386E250E396E0D0E3A6E4C0E1D6E12
:102760001D50D8A4100E1E6E0A0E1F6E87EC16F0B8
:10277000360E1D6E1E6A050E1F6E87EC16F01200D7
:10278000246E24C01CF01D6A000E1F6E640E1E6EA7
:10279000D2EC0FF01C50300F3B6E24C01CF01D6AB1
:1027A000000E1F6E0A0E1E6ED2EC0FF01C50300F82
:1027B0003C6E390E3C64DFEF13F0E1EF13F0E4EF11
:1027C00013F03C50F60F3C6E24C01CF01D6A000E46
:1027D0001F6E0A0E1E6EF3EC10F01C50300F3D6E93
:1027E000250E3E6E0D0E3F6E5F0E1D6E1D50D8A461
:1027F000100E1E6E090E1F6E87EC16F03B0E1D6E3E
:102800001E6A050E1F6E87EC16F01200000183870A
:1028100017EF14F008EC1AF043EF14F035EC1AF04F
:10282000030E43EF14F004EC1AF043EF14F06CC005
:102830000AF06DC00BF002D827EF14F00500FA6E15
:102840006051FD6E6151FE6EFF6AFA5012000D6E0E
:102850000E6A0E50000AD8B430EF14F013EF14F0E3
:102860000D50010AD8B413EF14F0030AD8B40AEFDC
:1028700014F0010AD8B40AEF14F0070AD8B40EEF26
:1028800014F013EF14F01200226E1F0660EF14F024
:102890001F50800F38EC19F07DEF14F01F50C00F5F
:1028A00038EC19F07DEF14F01F50940F38EC19F04C
:1028B0007DEF14F01F50D40F38EC19F07DEF14F0B9
:1028C0002250206E216A2150000AD8B46AEF14F019
:1028D0007DEF14F02050010AD8B448EF14F0030A39
:1028E000D8B44EEF14F0010AD8B454EF14F0070A2C
:1028F000D8B45AEF14F07DEF14F012009D9A960EA2
:102900001C6E220E1D6ED6EC19F09D98A80E1C6E42
:102910002E0E1D6ED1EC19F0180EB86E900EAB6E27
:10292000240EAC6E670EAF6E000EB06E880E1C6E7D
:10293000340E1D6EE0EC19F0420E1C6E340E1D6E4E
:10294000DBEC19F0480E1C6E340E1D6EE5EC19F030
:10295000000E2F6E000E356E000E346E080E336EB4
:10296000000E326E000E316E000E306E9D8A120027
:102970001D6E1DC01CF0010E1C168C501C18FE0B89
:102980001C188C6E1DC01CF0D8901C32010E1C1639
:102990001C468C501C18FD0B1C188C6E1DC01CF0A6
:1029A000D8901C32D8901C32010E1C161C461C46B6
:1029B0008C501C18FB0B1C188C6E1DC01CF0D89082
:1029C0001C32D8901C32D8901C32010E1C161C46AA
:1029D0001C461C468C501C18F70B1C188C6E1200E1
:1029E000266E000E276E265047EC12F00009D8B470
:1029F000FCEF14F0FEEF14F0F3EF14F0080E216E6C
:102A0000310E226E270E236E246A52EC19F0250E29
:102A10001C6E1D6A000E1F6E010E1E6ED5EC18F0A6
:102A2000000E216E000E226E000E236E000E246E2C
:102A30005EEC19F0F4EC19F042EC18F0E806D8B4AA
:102A400024EF15F026EF15F01CEF15F027501200BB
:102A500033EC1AF0000183A130EF15F032EF15F0DE
:102A60003FEF15F0A0EC19F00009D8B43AEF15F0DB
:102A70003CEF15F03FEF15F00F0E0001816F0001E4
:102A80008151020DF350010F0F6E0FC0F6FF100EB3
:102A9000F76EF86A0900F5CF10F00900F5CF11F0D4
:102AA00002D85CEF15F00500FA6E1050FD6E115063
:102AB000FE6EFF6AFA5012000001816F120026C0FC
:102AC0001FF0255044EC14F07BEF15F023C0F6FF07
:102AD00024C0F7FF000EF86E0F0EF76403D0080055
:102AE000F55005D0F6CFE9FFF7CFEAFFEF502AEC1B
:102AF00019F0234A242A23C0F6FF24C0F7FF000E52
:102B0000F86E0F0EF76403D00800F55005D0F6CF2D
:102B1000E9FFF7CFEAFFEF500009D8A492EF15F0D4
:102B200094EF15F066EF15F01200206E1C501D108A
:102B3000D8B49DEF15F09FEF15F0B5EF15F02050CC
:102B4000020DF350600FD96EDA6A1CC0DEFF1DC0A3
:102B5000DDFF2050020DF3506C0FD96EDA6A1EC0F3
:102B6000DEFF1FC0DDFFC7EF15F02050020DF35050
:102B7000600FD96EDA6A7A0EDE6E340EDD6E20508A
:102B8000020DF3506C0FD96EDA6ADE6ADD6A12004C
:102B900000018391020E826FD6EF15F008EC1AF057
:102BA000FAEF15F004EC1AF0FAEF15F070C00AF025
:102BB00071C00BF002D8E6EF15F00500FA6E645113
:102BC000FD6E6551FE6EFF6AFA5012000D6E0E6AC0
:102BD0000E50000AD8B4EFEF15F0D2EF15F00D50FB
:102BE000020AD8B4CEEF15F0010AD8B4CEEF15F032
:102BF000D2EF15F01200056E01500210D8B403EFA9
:102C000016F005EF16F01BEF16F00550020DF3500D
:102C1000600FD96EDA6A01C0DEFF02C0DDFF055029
:102C2000020DF3506C0FD96EDA6A03C0DEFF04C0E8
:102C3000DDFF2DEF16F00550020DF350600FD96E39
:102C4000DA6A7A0EDE6E340EDD6E0550020DF35038
:102C50006C0FD96EDA6ADE6ADD6A12001A0E1F6E18
:102C6000F80EE82EFED71F2EFCD700F000F0380E2D
:102C700038EC19F0070E1F6E7D0EE82EFED71F2EC2
:102C8000FCD70000380E38EC19F0320EE82EFED7D3
:102C9000380E38EC19F0010E38EC19F0020E38EC51
:102CA00019F0060E38EC19F00C0E38EC19F0280E5D
:102CB00038EC19F0800E38EC19F012001C6E33500D
:102CC000D8B465EF16F067EF16F05FEF16F09DB819
:102CD0006CEF16F06EEF16F072EF16F01CC0ADFF41
:102CE00085EF16F09D983550B40FD96EDA6A1CC086
:102CF000DFFF352A070E356480EF16F082EF16F0FD
:102D000084EF16F0000E356E33069D881200000E1B
:102D1000206E000E206EA3EF16F01DC0F6FF1EC041
:102D2000F7FF000EF86E0F0EF76403D00800F550A1
:102D300005D0F6CFE9FFF7CFEAFFEF505EEC16F0D3
:102D40001D4A1E2A202A1F50205CD8A0AAEF16F088
:102D5000ACEF16F08DEF16F01200000E0101041B0F
:102D6000000E051B000E061B800E071B00C11CF089
:102D700001C11DF002C11EF003C11FF004C120F00B
:102D800005C121F006C122F007C123F03EEC08F096
:102D90001CC000F11DC001F11EC002F11FC003F1F3
:102DA0001200E2C027F0DEEF16F0E1C0D7F0270EE8
:102DB0000001D86FE3C0D9F0B5EC0CF027C0F6FFE6
:102DC000100EF76EF86A0800F5500009D8A4EBEF72
:102DD00016F0EDEF16F0D5EF16F0000E0001E26FE1
:102DE000000EE16F120020EE02F00A50D9260B50BF
:102DF000DA22DF500C6E0CC001F0026A0AC0D9FF63
:102E00000BC0DAFFDECF03F0DDCF04F0E7EC18F003
:102E1000000E066E000E076E000E086E000E096EA4
:102E20006AEC19F0020E1200E70E0001E96FE4C02F
:102E3000EAF0E5C0EBF0000EEE6F000EED6F000E55
:102E4000F56F000EF46FEA0EE16FE6C0E2F0E90EF6
:102E5000E36FD1EC16F00001ED51E425D96EEE518F
:102E6000E521DA6EDF6A12001C6E010E1D6E000194
:102E700083B33DEF17F03FEF17F052EF17F0838366
:102E8000000E1D6E1C50D8B448EF17F04AEF17F033
:102E90004EEF17F0010E816F50EF17F0020E816FA9
:102EA0002BEC1AF01D501200080E33605AEF17F089
:102EB0005CEF17F070EF17F03450B40FD96EDA6A88
:102EC000DF50AD6E342A070E346469EF17F06BEFF4
:102ED00017F06DEF17F0000E346E332A71EF17F014
:102EE0009D981200206E20C01EF01E461E46C25045
:102EF0001E18C30B1E18C26EC280C282C2B283EFFC
:102F000017F085EF17F07EEF17F0C4501F6E1E6AA2
:102F1000C3501E241C6E000E1F201D6E12000001E7
:102F2000F76FCB0E0001F66FF751E3EC12F0CB0E0A
:102F3000236E246A06C125F007C126F05FEC15F068
:102F400006C123F001010751040F246E430E8CECDF
:102F500019F012000001F76FCF0E0001F66FF75164
:102F6000E3EC12F0CF0E236E246A06C125F007C1F0
:102F700026F05FEC15F006C123F001010751030FA5
:102F8000246E250E8CEC19F012000001F76FD30EA1
:102F90000001F66FF751E3EC12F0D30E236E246AB2
:102FA00006C125F007C126F05FEC15F006C123F03D
:102FB00001010751030F246E250E8CEC19F012004D
:102FC00023BEE5EF17F0E7EF17F0EDEF17F022C0A3
:102FD00022F023C023F0F9EF17F022C024F023C021
:102FE00025F0241E251E244A252A24C022F025C0AF
:102FF00023F01200000E8D6E000E8C6E000E896E96
:10300000000E8A6E000E8B6E070E966E92689368A5
:10301000BC0E946E000E956E7E681F0E7F6E000EC5
:103020007C6EF18E12001CC021F01DEF18F02150B3
:10303000D96EDA6A1DC0DFFF212A1F06D8A020063C
:103040001F2806E12028D8A428EF18F02AEF18F04E
:1030500017EF18F012009E9C40504110D8B433EF87
:1030600018F035EF18F041EF18F002D841EF18F0E2
:103070000500FA6E4050FD6E4150FE6EFF6AFA5038
:1030800012001200010E1C6E000183B34AEF18F00B
:103090004CEF18F056EF18F083957C6931EC1AF07C
:1030A0002DEC1AF02FEC1AF082C01CF01C5012000C
:1030B0000AC001F00BC002F0000E046E010E036E98
:1030C000E7EC18F0000E066E000E076E000E086E9C
:1030D000000E096E6AEC19F0040E12000AC001F02D
:1030E0000BC002F0000E046E020E036EE7EC18F047
:1030F000000E066E000E076E000E086E000E096EC2
:103100006AEC19F0020E12000AC001F00BC002F0C6
:10311000000E046E010E036EE7EC18F0000E066E52
:10312000000E076E000E086E000E096E6AEC19F0B4
:10313000020E12000AC001F00BC002F0000E046E75
:10314000020E036EE7EC18F0000E066E000E076E1E
:10315000000E086E000E096E6AEC19F0040E1200E3
:103160003250AC0FD96EDA6AAECFDFFF322A070ECB
:103170003264BDEF18F0BFEF18F0C1EF18F0000E89
:10318000326E302A1200000EC16E840EC06E000E28
:10319000C36E000EC46E010EC26E9D8C8A0E1C6E34
:1031A000340E1D6EEAEC19F01200000183A7DBEF6C
:1031B00018F0DDEF18F0E6EF18F01CC07DF01DC030
:1031C0007EF01EC07FF01FC080F0839712000001C8
:1031D00083A7EDEF18F0EFEF18F0F8EF18F001C04B
:1031E0007DF002C07EF003C07FF004C080F08397C2
:1031F000120000EE60F0770EEE6AE806FDE100EEE8
:1032000028F0180EEE6AE806FDE1449044920001B1
:1032100075EF0EF0C6BA0FEF19F011EF19F01AEFB3
:1032200019F0800EC76E080EC66E000EC56E090E30
:10323000C86EC68A120027EC1AF096EC19F0FAEC68
:1032400017F0CCEC19F0C3EC18F07EEC14F02EEC77
:1032500016F012001E6E8C881E380F0BB8EC14F09E
:1032600081EC19F01E50B8EC14F081EC19F012004A
:103270001E6E8C981E380F0BB8EC14F081EC19F010
:103280001E50B8EC14F081EC19F012000001D76F59
:10329000000E256E0001D751F0EC14F00001D86F3C
:1032A000D851120021C01CF022C01DF023C01EF016
:1032B00024C01FF0000E95EC15F0120021C01CF088
:1032C00022C01DF023C01EF024C01FF0020E95EC9A
:1032D00015F0120006C001F007C002F008C003F0AC
:1032E00009C004F0000EFBEC15F01200210E1D6E5B
:1032F0001D50D8A4100E1E6E110E1F6E87EC16F016
:1033000012008C8A070E1C6E7D0EE82EFED71C2E36
:10331000FCD700008C9A1200256E24C01FF02350A9
:1033200044EC14F025502AEC19F01200800EC76E00
:10333000080EC66E000EC56E090EC86EC69A120043
:10334000C5BCA5EF19F0A8EF19F0010EA9EF19F00F
:10335000000E1200000183817C517C2514EC1AF0D0
:10336000030E120000018381D8807C3514EC1AF022
:10337000050E120000018393000E826F0E0E1200E4
:103380000001839139EC1AF0040E120000018393BE
:10339000000E826F0E0E1200300ED36E000E9B6E6A
:1033A00012001CC042F01DC043F012001CC0FEF011
:1033B0001DC0FFF012001CC0FAF01DC0FBF012008F
:1033C0001CC0FCF01DC0FDF012001CC0F8F01DC0B8
:1033D000F9F012001CC040F01DC041F012001CC0EA
:1033E0002CF01DC02DF01200000E34EC17F012006E
:1033F0001EEC1AF0090E12001EEC1AF00A0E120052
:103400001BEC1AF0050E12003FEC1AF0000E120031
:1034100041EC1AF0010E120041EC1AF0020E1200FB
:1034200041EC1AF0010E1200016E01C0C9FF12003A
:1034300028EC15F01200C59AC5881200C58AC58807
:103440001200AB98AB881200B0EC18F01200D09EBE
:1034500012009D861200C58012009D961200C69A29
:1034600012009E9612009E9612009E861200C9506F
:103470001200C5861200050E1200010E1200C5844E
:0C3480001200C58212001200120012009F
:020000040030CA
:0E000000FF021F1EFF8B85FF0FC00FE00F4099
:00000001FF
